:020000040800F2
:1000000028050020050200086502000865020008B6
:100010006502000865020008650200080000000093
:100020000000000000000000000000006502000861
:100030006502000800000000650200086502000873
:1000400065020008650200086502000865020008F4
:1000500065020008650200086502000865020008E4
:1000600065020008650200086502000865020008D4
:10007000650200080D050008650200086502000819
:10008000650200086502000829120008000000004F
:1000900000000000000000000000000065020008F1
:1000A0006502000865020008650200086502000894
:1000B000D508000865020008C108000865020008AC
:1000C0006502000865020008650200086502000874
:1000D0006502000865020008650200086502000864
:1000E00065020008650200086502000800000000C3
:1000F0000000000000000000000000000000000000
:1001000000000000000000000000000000000000EF
:100110000000000000000000650200086502000801
:100120005FF808F180B483B000AF78600B46FB70D5
:10013000FB78002B08D07B681B889BB243F001033F
:100140009AB27B681A8007E07B681B889BB223F019
:1001500001039AB27B681A8000BF0C37BD4680BC91
:10016000704700BF80B483B000AF78600B467B80DF
:1001700013467B707B78002B08D07B689B899AB2F2
:100180007B8813439AB27B689A8109E07B689B89DC
:100190009AB27B88DB439BB213409AB27B689A8108
:1001A00000BF0C37BD4680BC704700BF80B483B031
:1001B00000AF78600B467B807B689B889BB223F006
:1001C00070039AB27B689A807B689B889AB27B881E
:1001D00013439AB27B689A8000BF0C37BD4680BC3F
:1001E000704700BF80B483B000AF78600B467B805F
:1001F0007B88DB439AB27B681A8200BF0C37BD460E
:1002000080BC704780B582B000AF114B7B60114B52
:100210003B6007E03B681A1D3A607A68111D7960FF
:1002200012681A603B680C4A9342F3D30B480C499E
:100230004FF000028842B8BF40F8042BFADB00F010
:1002400015F800F03FFC00BF0837BD4680BD00BF79
:10025000621B000800000020E4000020E4000020F1
:100260002801002080B400AFFEE700BF80B500AFDA
:10027000174A174B1B6843F0010313601449144BD2
:100280005A68144B13404B60114A114B1B6823F002
:10029000847323F4803313600D4A0D4B1B6823F4E1
:1002A000802313600A4A0A4B5B6823F4FE03536001
:1002B000074B4FF41F029A60054B0022DA6200F0F0
:1002C0000DF8054B4FF000629A6000BF80BD00BF83
:1002D000001002400000FFF800ED00E080B500AF24
:1002E00000F002F800BF80BD80B483B000AF0023EF
:1002F0007B6000233B60304A2F4B1B6843F4803304
:1003000013602D4B1B6803F400333B607B680133A3
:100310007B603B68002B03D17B68B3F5A06FF0D105
:10032000254B1B6803F40033002B02D001233B60F4
:1003300001E000233B603B68012B37D11E4A1E4B76
:100340005B6853601C4A1C4B5B6853601A4A1A4B2B
:100350005B685360184A184B5B6823F47C13536046
:10036000154A154B5B6843F498135360124A124BBD
:100370001B6843F08073136000BF0F4B1B6803F0D2
:100380000073002BF9D00C4A0B4B5B6823F003037E
:100390005360094A084B5B6843F00203536000BF97
:1003A000054B5B6803F00C03082BF9D100BF0C3739
:1003B000BD4680BC704700BF0010024080B483B0CF
:1003C00000AF0346FB71084997F907305B09FA79DA
:1003D00002F01F02012000FA02F241F8232000BFC0
:1003E0000C37BD4680BC704700E100E080B590B09E
:1003F00000AF07F13C03184600F07AF9002387F8B4
:100400003F301023BB87022387F83E3007F13C03BF
:100410001946394800F0B0F80121102000F00CFC1A
:10042000364B05221A85354B4FF496629A85012288
:1004300001213248FFF796FE20213048FFF7B6FE33
:1004400001212E48FFF76EFE01214FF0005000F011
:10045000F3FB07F12C03184600F0BAF90423FB6202
:1004600000233B630023BB6307F12C0319460020E4
:1004700000F07CF90121002000F0C0F901210120E9
:1004800000F09EFB1E4800F0E7FE3B46184600F0D9
:10049000DDFF1C4B3B601C4B7B601023BB602023AB
:1004A000FB6000233B6180237B614FF48073BB6161
:1004B0004FF48063FB6120233B624FF400537B6267
:1004C0000023BB623B4619460D4800F081FF012224
:1004D00002210B4801F000F80D20FFF76FFF01210A
:1004E000074800F0DDFF0121002000F0ABF900BF5C
:1004F0004037BD4680BD00BF0008014000100040ED
:1005000030000240087400400000002080B483B036
:1005100000AF144B1B68012B03D1134B40F6FC02B8
:100520009A85124A114B5B6843F4007353600023B1
:100530007B600AE00E4A7B6832F813100D4A7B6834
:1005400022F813107B6801337B607B681F2BF1DD81
:10055000044B1B680133034A136000BF0C37BD46D0
:1005600080BC7047E400002000080040000002400A
:10057000AC1A00080000002080B489B000AF786099
:1005800039600023FB6100233B610023BB61002332
:10059000FB6000237B610023BB603B68DB7803F0DA
:1005A0000F03FB613B68DB7803F01003002B05D0E1
:1005B0003B689B781A46FB691343FB613B681B88C9
:1005C000DBB2002B44D07B681B687B610023BB61DE
:1005D00038E00122BB6902FA03F3FB603B681B8829
:1005E0001A46FB6813403B613A69FB689A4226D180
:1005F000BB699B00FB600F22FB6802FA03F3BB6040
:10060000BB68DB437A6913407B61FA69FB6802FAD5
:1006100003F37A6913437B613B68DB78282B05D1B0
:100620000122BB699A407B685A6108E03B68DB782D
:10063000482B04D10122BB699A407B681A61BB69CF
:100640000133BB61BB69072BC3D97B687A691A6028
:100650003B681B88FF2B46D97B685B687B61002366
:10066000BB613AE0BB690833012202FA03F3FB6085
:100670003B681B881A46FB6813403B613A69FB687C
:100680009A4227D1BB699B00FB600F22FB6802FAEC
:1006900003F3BB60BB68DB437A6913407B61FA6993
:1006A000FB6802FA03F37A6913437B613B68DB78EA
:1006B000282B05D1BB69083301229A407B685A6117
:1006C0003B68DB78482B05D1BB69083301229A408F
:1006D0007B681A61BB690133BB61BB69072BC1D958
:1006E0007B687A695A6000BF2437BD4680BC70477A
:1006F00080B483B000AF78607B684FF6FF721A80D9
:100700007B6802229A707B680422DA7000BF0C3783
:10071000BD4680BC704700BF80B483B000AF786036
:100720000B467B807A887B681A6100BF0C37BD4618
:1007300080BC704780B483B000AF78600B467B808C
:100740007A887B685A6100BF0C37BD4680BC704711
:1007500080B483B000AF78600B467B807A887B687A
:10076000DA6000BF0C37BD4680BC704780B485B0EE
:1007700000AF786039600023FB600023BB60134B3F
:100780001B68FB6040F6FE727B6802FA03F3DB43F2
:10079000FA681340FB603B681A683B685B681A4361
:1007A0003B689B681A433B68DB681343BB60BA68CD
:1007B0007B6802FA03F3FA681343FB60034AFB68A1
:1007C000136000BF1437BD4680BC70470074004002
:1007D00080B483B000AF78607B6800221A607B68C9
:1007E00000225A607B6800229A607B680022DA60EF
:1007F00000BF0C37BD4680BC704700BF80B483B0DB
:1008000000AF78600B46FB70FB78002B09D00C49D9
:100810000B4B1A6801207B6800FA03F313430B604B
:1008200009E00749064B1A6801207B6800FA03F3C8
:10083000DB4313400B6000BF0C37BD4680BC7047E4
:100840000074004080B483B000AF78600B46FB704A
:10085000FB78002B0AD00D490C4B1A684FF48050DE
:100860007B6800FA03F313430B600AE00749074B68
:100870001A684FF480507B6800FA03F3DB4313409F
:100880000B6000BF0C37BD4680BC70470074004051
:1008900080B483B000AF0346FB71084997F9073075
:1008A0005B09FA7902F01F02012000FA02F241F816
:1008B000232000BF0C37BD4680BC704700E100E03C
:1008C00080B500AF01210248FFF78CFC00BF80BD5E
:1008D0000008004080B582B000AF01214FF0804099
:1008E000FFF780FC4FF480716B48FFF715FF6B4BEF
:1008F0001B68B3F1FF3F10D1694B1B68002B0CD173
:10090000664B1B680133654A1360664B01221A600F
:10091000634B1B680133624A1360634800F070FB4D
:1009200003461A46614B1A605C4B1B68202B4BD167
:1009300000237B601AE07B6803F00103002B12D1D7
:100940005B4A7B6852F82330184600F0A9FF594BE8
:100950001B68082B07DC7B68012B04D0554B1B68F8
:100960000133544A13607B6801337B607B681F2B23
:10097000E1DD00233B6007E04D4A3B68002142F87F
:1009800023103B6801333B603B681F2BF4DD4A4B6F
:100990001B68002B0FD1484B1B680133464A13607C
:1009A0003E4B4FF0FF321A603E4B00221A603C4B28
:1009B00000221A6008E0394B00221A60394B0322EA
:1009C0001A60374B23221A60364B1B68022B4ED11C
:1009D0003A4B1A68354B1B689A4214DA384B1B683D
:1009E000334A002142F82310354B1B680133344A47
:1009F00013602A4B1B680133284A13602B4B1B687A
:100A00002E4A136033E0294B1A682C4B1B689A421C
:100A100014DA2B4B1B68264A012142F82310284B7D
:100A20001B680133264A13601C4B1B6801331B4AA9
:100A300013601E4B1B68214A136018E0174B1B689C
:100A4000002B14D01E4B1B681D4A1268013A18492E
:100A500051F82220164941F82320194B1B68013315
:100A6000174A13600D4B1B6801330C4A13600D4B82
:100A70001B68012B06D10D4B1B68104A1360094BF4
:100A800002221A604FF480710348FFF753FE00BF43
:100A90000837BD4680BD00BF00080140E0000020CF
:100AA0001001002000010020002401401801002056
:100AB00040000020F8000020140100200401002064
:100AC000FC00002080B582B000AF0121042000F0BE
:100AD000B3F80121012000F0AFF8FFF7C7FB00F0E9
:100AE00027FB00F093FE00F0D3FE0021002000F071
:100AF00033FDFFF77BFC01233B802823FB7002239F
:100B0000BB703B4619461E48FFF736FD4FF4807315
:100B10003B801023FB700223BB703B4619461848EC
:100B2000FFF72AFD00237B60164B05221A85154B23
:100B30004FF496629A85012201211248FFF712FBB9
:100B400001211048FFF7EEFA1E20FFF7A1FE4FF03B
:100B5000804305221A854FF080434FF496629A85B0
:100B6000012201214FF08040FFF7FCFA01214FF0F4
:100B70008040FFF7D7FA1C20FFF78AFEFEE700BF90
:100B8000000801400008004080B485B000AF7860E4
:100B90000023FB60094B5B68FB60FB6823F4404368
:100BA000FB60FA687B681343FB60044AFB68536090
:100BB00000BF1437BD4680BC704700BF0010024024
:100BC00080B483B000AF78600B46FB70FB78002BDD
:100BD00006D00949084B5A697B6813434B6106E00C
:100BE0000549054B5A697B68DB4313404B6100BFE5
:100BF0000C37BD4680BC70470010024080B483B003
:100C000000AF78600B46FB70FB78002B06D00949DB
:100C1000084B9A697B6813438B6106E00549054BD5
:100C20009A697B68DB4313408B6100BF0C37BD467C
:100C300080BC70470010024080B483B000AF786081
:100C40000B46FB70FB78002B06D00949084BDA698C
:100C50007B681343CB6106E00549054BDA697B6885
:100C6000DB431340CB6100BF0C37BD4680BC7047EF
:100C70000010024080B485B000AF78603960002376
:100C8000FB600023FB727B685B68FB60FB6823F4FE
:100C9000702323F48073FB603B681A683B681B7900
:100CA0001B021343FA681343FB607B68FA685A60BF
:100CB0007B689B68FB60FA68164B1340FB603B68DF
:100CC000DA683B689B681A433B685B795B001343B7
:100CD000FA681343FB607B68FA689A607B68DB6A9A
:100CE000FB60FB6823F47003FB603B681B7C013BEB
:100CF000DAB2FB7A1343FB72FB7A1B05FA681343E3
:100D0000FB607B68FA68DA6200BF1437BD4680BCBE
:100D1000704700BFFDF7F1FF80B483B000AF78608B
:100D20000B46FB70FB78002B06D07B689B6843F07A
:100D300001027B689A6005E07B689B6823F00102F2
:100D40007B689A6000BF0C37BD4680BC704700BF0F
:100D500080B485B000AF78600B467B8013467B7013
:100D60000023FB737B88FB737B78002B06D07B68AA
:100D70005A68FB7B1A437B685A6006E07B685A68B6
:100D8000FB7BDB431A407B685A6000BF1437BD46CB
:100D900080BC704780B483B000AF78607B689B688C
:100DA00043F008027B689A6000BF0C37BD4680BCE8
:100DB000704700BF80B485B000AF78600023FB733C
:100DC0007B689B6803F00803002B02D00123FB73B0
:100DD00001E00023FB73FB7B18461437BD4680BC43
:100DE000704700BF80B483B000AF78607B689B68B9
:100DF00043F004027B689A6000BF0C37BD4680BC9C
:100E0000704700BF80B485B000AF78600023FB73EB
:100E10007B689B6803F00403002B02D00123FB7363
:100E200001E00023FB73FB7B18461437BD4680BCF2
:100E3000704700BF80B483B000AF78600B46FB7092
:100E4000FB78002B06D07B689B6843F4A0027B688C
:100E50009A6005E07B689B6823F4A0027B689A6037
:100E600000BF0C37BD4680BC704700BF80B485B062
:100E700000AF7860084611461A460346FB700B46E1
:100E8000BB7013467B700023FB600023BB60FB78C4
:100E9000092B23D97B68DB68FB60FB78A3F10A028E
:100EA00013465B001344072202FA03F3BB60BB68DE
:100EB000DB43FA681340FB607978FB78A3F10A0200
:100EC00013465B00134401FA03F3BB60FA68BB6886
:100ED0001343FB607B68FA68DA601EE07B681B697D
:100EE000FB60FA7813465B001344072202FA03F30F
:100EF000BB60BB68DB43FA681340FB607978FA7823
:100F000013465B00134401FA03F3BB60FA68BB6845
:100F10001343FB607B68FA681A61BB78062B21D803
:100F20007B685B6BFB60BB785A1E13469B001344C7
:100F30001F2202FA03F3BB60BB68DB43FA6813406D
:100F4000FB60F978BB785A1E13469B00134401FAE4
:100F500003F3BB60FA68BB681343FB607B68FA6805
:100F60005A6347E0BB780C2B21D87B681B6BFB6076
:100F7000BB78DA1F13469B0013441F2202FA03F3C7
:100F8000BB60BB68DB43FA681340FB60F978BB7851
:100F9000DA1F13469B00134401FA03F3BB60FA689F
:100FA000BB681343FB607B68FA681A6322E07B68C6
:100FB000DB6AFB60BB78A3F10D0213469B00134470
:100FC0001F2202FA03F3BB60BB68DB43FA681340DD
:100FD000FB60F978BB78A3F10D0213469B00134424
:100FE00001FA03F3BB60FA68BB681343FB607B68DC
:100FF000FA68DA6200BF1437BD4680BC704700BF94
:1010000080B483B000AF78607B68DB6C9BB218461D
:101010000C37BD4680BC704780B485B000AF7860A7
:1010200039600023FB607B685B68FB60FB6823F42E
:10103000400323F40073FB60FA683B681343FB60D2
:101040007B68FA685A6000BF1437BD4680BC7047A1
:1010500080B483B000AF78600B467B8013463B8042
:101060007A887B685A623A887B689A6200BF0C373C
:10107000BD4680BC704700BF80B485B000AF7860CB
:101080000B46FB700023FB607B685B68FB60FB68C2
:1010900023F01F03FB60FB78FA681343FB607B6857
:1010A000FA685A6000BF1437BD4680BC704700BF65
:1010B00080B487B000AF78600B467B800023FB755F
:1010C00000233B610023FB607B881B0A9BB23B61D2
:1010D0007B685B687A88D2B21340FB607B681A68D1
:1010E0003B691340002B05D0FB68002B02D0012385
:1010F000FB7501E00023FB75FB7D18461C37BD46E0
:1011000080BC704780B485B000AF78600B467B80B0
:101110000023FB737B881B0A9BB2FB73FB7BDA43C8
:101120007B681A6000BF1437BD4680BC704700BFA3
:1011300080B588B000AF4FF40040FFF725FD0121D6
:101140000420FFF75BFD01214FF40070FFF756FD0F
:101150000223BB830023FB770223BB7707F11C0329
:1011600019462E48FFF708FA12233B7100237B71C2
:101170000023BB710123FB713B1D184600F0F4FBFB
:1011800001237B7300237B614FF460233B610023C9
:10119000BB6001233B7601233B7305230122012120
:1011A0001F48FFF763FE07F1080319461C48FFF7C5
:1011B00061FD40F2A14240F222611948FFF748FF69
:1011C00001211748FFF758FF16491548FFF724FF7C
:1011D00001224FF4A0711248FFF7BAFD0121104817
:1011E000FFF79AFD0E48FFF7D5FD00BF0C48FFF74B
:1011F000E1FD0346002BF9D10948FFF7F3FD00BFDD
:101200000748FFF7FFFD0346002BF9D101210448F1
:10121000FFF710FE00BF2037BD4680BD000801402B
:10122000002401400002800080B500AF4FF4A0719F
:101230000748FFF73DFF0346002B07D0054B01226F
:101240001A704FF4A0710248FFF75CFF00BF80BD29
:10125000002401401C01002080B483B000AF7860FE
:101260007B681A684FF6FE7313407A6813607B68D8
:1012700000221A607B6800225A607B6800229A6014
:101280007B680022DA607B68434A934206D1434A76
:10129000424B5B6843F00F03536077E07B68404A42
:1012A000934206D13D4A3D4B5B6843F0F0035360E7
:1012B0006CE07B683B4A934206D1384A374B5B6807
:1012C00043F47063536061E07B68374A934206D110
:1012D000324A324B5B6843F47043536056E07B689C
:1012E000324A934206D12D4A2C4B5B6843F470235B
:1012F00053604BE07B682E4A934206D1274A274B26
:101300005B6843F47003536040E07B68294A934272
:1013100006D1224A214B5B6843F07063536035E08D
:101320007B68254A934206D1244A244B5B6843F0EC
:101330000F0353602AE07B68214A934206D11F4A7B
:101340001E4B5B6843F0F00353601FE07B681D4A4F
:10135000934206D1194A194B5B6843F4706353609A
:1013600014E07B68184A934206D1144A134B5B6819
:1013700043F47043536009E07B68144A934205D1FB
:101380000E4A0E4B5B6843F47023536000BF0C376A
:10139000BD4680BC704700BF08000240000002400C
:1013A0001C0002403000024044000240580002404D
:1013B0006C00024080000240080402400004024029
:1013C0001C0402403004024044040240580402401D
:1013D00080B485B000AF786039600023FB607B6823
:1013E0001B68FB60FB6823F4FF4323F07003FB6082
:1013F0003B689A683B681B6A1A433B681B691A433F
:101400003B685B691A433B689B691A433B68DB692D
:101410001A433B685B6A1A433B689B6A1343FA684A
:101420001343FB607B68FA681A603B68DA687B6884
:101430005A603B681A687B689A603B685A687B68A8
:10144000DA6000BF1437BD4680BC704780B483B0FB
:1014500000AF78607B6800221A607B6800225A60C7
:101460007B6800229A607B680022DA607B68002239
:101470001A617B6800225A617B6800229A617B684E
:101480000022DA617B6800221A627B6800225A62BD
:101490007B6800229A6200BF0C37BD4680BC704753
:1014A00080B483B000AF78600B46FB70FB78002BF4
:1014B00006D07B681B6843F001027B681A6006E077
:1014C0007B681A684FF6FE7313407A68136000BF9A
:1014D0000C37BD4680BC704780B485B000AFF86063
:1014E000B9601346FB71FB79002B06D0FB681A68C4
:1014F000BB681A43FB681A6006E0FB681A68BB68A1
:10150000DB431A40FB681A6000BF1437BD4680BC3D
:10151000704700BF80B584B000AF78600EE0FB7B01
:10152000BF2B07D9FB7BC03B0A4AD35C184600F0AF
:10153000F1F803E0FB7B184600F0ECF87B685A1CDE
:101540007A601B78FB73FB7B002BE8D100BF103760
:10155000BD4680BDEC1A000880B582B000AF0346DE
:101560000A46FB711346BB71FB79032B36D801A2E7
:1015700052F823F08515000895150008AD150008F0
:10158000C5150008BB7963F07F03DBB2184600F095
:1015900043F823E0BB794033DBB25BB263F07F03F7
:1015A0005BB2DBB2184600F037F817E0BB791033B6
:1015B000DBB25BB263F07F035BB2DBB2184600F0D4
:1015C0002BF80BE0BB795033DBB25BB263F07F03E7
:1015D0005BB2DBB2184600F01FF800BF00BF08374F
:1015E000BD4680BD80B582B000AF01210820FFF765
:1015F00005FB4FF4FE53BB801023FB710323BB712B
:101600003B1D19460348FEF7B7FF00BF0837BD462C
:1016100080BD00BF000C014080B582B000AF034622
:10162000FB71FFF7DFFF394B45F6C0521A6000BF70
:10163000364B1B685A1E35490A60002BF8D1344AD4
:10164000334BDB6823F48053D360FB791B09DBB297
:101650009BB29B019BB219462D48FFF779F82C4AA3
:101660002B4BDB6843F48063D360284B0A221A605B
:1016700000BF264B1B685A1E24490A60002BF8D174
:10168000234A234BDB6823F48063D3600021204886
:10169000FFF75EF8FB799B019BB203F470739BB27A
:1016A00019461B48FFF754F8184B0A221A6000BF6E
:1016B000164B1B685A1E15490A60002BF8D1144AB4
:1016C000134BDB6843F48063D360104B0A221A602B
:1016D00000BF0E4B1B685A1E0C490A60002BF8D144
:1016E0000B4A0B4BDB6823F48063D360084A084B3A
:1016F000DB6823F48053D360054A054BDB6823F491
:101700000063D36000BF0837BD4680BD24010020C0
:10171000000C014080B582B000AF0346FB71FFF7BB
:1017200061FFFB791B09DBB29BB29B019BB219469F
:101730003448FFF70DF8334A324BDB6843F48063DB
:10174000D360304A2F4BDB6843F48053D3602E4B79
:101750000A221A6000BF2C4B1B685A1E2A490A60D5
:10176000002BF8D1274A274BDB6823F48063D36032
:1017700000212448FEF7ECFFFB799B019BB203F4A8
:1017800070739BB219461F48FEF7E2FF1E4B0A22F8
:101790001A6000BF1C4B1B685A1E1B490A60002BB5
:1017A000F8D1184A174BDB6843F48063D360154ABD
:1017B000144BDB6843F48053D360134B0A221A6046
:1017C00000BF114B1B685A1E0F490A60002BF8D14D
:1017D0000C4A0C4BDB6823F48063D360094A094B45
:1017E000DB6823F48053D360064A064BDB6823F49E
:1017F0000063D36000210348FEF7AAFF00BF08374B
:10180000BD4680BD000C01402401002080B500AF22
:10181000FFF7E8FE1C4B1D4A1A6000BF1A4B1B68FD
:101820005A1E19490A60002BF8D12020FFF7F4FE58
:10183000154B164A1A6000BF134B1B685A1E1249FB
:101840000A60002BF8D10F20FFF7E6FE0E4B0F4A7F
:101850001A6000BF0C4B1B685A1E0B490A60002B14
:10186000F8D10120FFF7D8FE074B084A1A6000BFE5
:10187000054B1B685A1E04490A60002BF8D104204E
:10188000FFF7CAFE00BF80BD2401002040190100FF
:1018900080B500AF0120FFF7BFFE00BF80BD00BFD5
:1018A00080B582B000AF78607B68092B3ED801A27A
:1018B00052F823F0DD180008E5180008ED180008BC
:1018C000F5180008FD180008051900080D19000892
:1018D000151900081D190008251900081748FFF7F9
:1018E00019FE27E01648FFF715FE23E01548FFF71D
:1018F00011FE1FE01448FFF70DFE1BE01348FFF731
:1019000009FE17E01248FFF705FE13E01148FFF744
:1019100001FE0FE01048FFF7FDFD0BE00F48FFF759
:10192000F9FD07E00E48FFF7F5FD03E00D48FFF76E
:10193000F1FD00BF00BF0837BD4680BD341B000865
:10194000381B00083C1B0008401B0008441B000813
:10195000481B00084C1B0008501B0008541B0008C3
:10196000581B00085C1B000880B487B000AF78608B
:1019700000237B6100233B610F23FB607B68DB78E6
:10198000002B3AD0274BDB68DB4303F4E0631B0AF0
:101990007B617B69C3F104033B61FA687B6922FACE
:1019A00003F3FB607B685B781A463B6902FA03F33A
:1019B0007B617B689B781A46FB6813407A69134306
:1019C0007B617B691B017B61174A7B681B787969A6
:1019D000C9B213440A4683F80023134A7B681B7874
:1019E0005B09DBB218467B681B7803F01F030121FB
:1019F00001FA03F342F820300FE00B497B681B78B3
:101A00005B09DBB218467B681B7803F01F030122D9
:101A10009A4000F1200341F8232000BF1C37BD4647
:101A200080BC704700ED00E000E100E08084888C1D
:101A30009195999DA1A5A9ACB0B3B7BABDC0C3C5D6
:101A4000C8CACCCECFD1D2D3D4D4D5D5D5D5D4D481
:101A5000D3D2D1D0CECDCBC9C6C4C1BEBBB8B5B22E
:101A6000AEAAA7A39F9B97938E8A86827D79757174
:101A70006C6864605C5855514D4A4744413E3B395F
:101A8000363432312F2E2D2C2B2B2A2A2A2A2B2B7F
:101A90002C2D2E3031323335373A3C3E4245484CBE
:101AA0004F53565A5E62666A6E73777BA00FDC05F1
:101AB000A00FDC05A00FDC05A00FDC05DC05A00FE6
:101AC000A00FDC05A00FDC05DC05A00FDC05A00FD6
:101AD000DC05A00FDC05A00FA00FDC05A00FDC05C6
:101AE000A00FDC05DC05A00FDC05A00F41A042A182
:101AF000E045A3A4A5A64BA74D484FA8504354A921
:101B0000AA58E1ABACE2ADAE62AFB0B161B2B3B472
:101B1000E365B6B7B8B9BABBBCBD6FBE7063BF7979
:101B2000E478E5C0C1E6C2C3C4C5C6C72E00000044
:101B300020000000300000003100000032000000F2
:101B400033000000340000003500000036000000C3
:101B50003700000038000000390000006572726F25
:021B6000720011
:101B6200A00FDC05DC05A00FA00FDC05A00FDC0533
:101B7200A00FDC05A00FDC05DC05A00FDC05A00F23
:101B8200DC05A00FDC05A00FDC05A00FDC05A00F13
:101B9200DC05A00FDC05A00FDC05A00FDC05A00F03
:101BA200090000000000000000000000000000002A
:101BB2000000000000000000000000000000000023
:101BC2000000000000000000000000000000000013
:101BD2000000000000000000000000000000000003
:101BE20000000000000000000000000000000000F3
:101BF20000000000000000000000000000000000E3
:101C020000000000000000000000000000000000D2
:101C120000000000000000000000000000000000C2
:101C220001000000020000000400000008000000A3
:101C320010000000200000004000000080000000B2
:041C4200FFFFFFFFA2
:0400000508000000EF
:00000001FF
