:020000040800F2
:1000000020040020050200086502000865020008BF
:100010006502000865020008650200080000000093
:100020000000000000000000000000006502000861
:100030006502000800000000650200086502000873
:1000400065020008650200086502000865020008F4
:1000500065020008650200086502000865020008E4
:1000600065020008650200086502000865020008D4
:100070006502000815050008650200086502000811
:100080006502000865020008F11000080000000089
:1000900000000000000000000000000065020008F1
:1000A0006502000865020008650200086502000894
:1000B0007D08000865020008211500086502000897
:1000C0006502000865020008650200086502000874
:1000D0006502000865020008650200086502000864
:1000E00065020008650200086502000800000000C3
:1000F0000000000000000000000000000000000000
:1001000000000000000000000000000000000000EF
:100110000000000000000000650200086502000801
:100120005FF808F180B483B000AF78600B46FB70D5
:10013000FB78002B08D07B681B889BB243F001033F
:100140009AB27B681A8007E07B681B889BB223F019
:1001500001039AB27B681A8000BF0C37BD4680BC91
:10016000704700BF80B483B000AF78600B467B80DF
:1001700013467B707B78002B08D07B689B899AB2F2
:100180007B8813439AB27B689A8109E07B689B89DC
:100190009AB27B88DB439BB213409AB27B689A8108
:1001A00000BF0C37BD4680BC704700BF80B483B031
:1001B00000AF78600B467B807B689B889BB223F006
:1001C00070039AB27B689A807B689B889AB27B881E
:1001D00013439AB27B689A8000BF0C37BD4680BC3F
:1001E000704700BF80B483B000AF78600B467B805F
:1001F0007B88DB439AB27B681A8200BF0C37BD460E
:1002000080BC704780B582B000AF114B7B60114B52
:100210003B6007E03B681A1D3A607A68111D7960FF
:1002200012681A603B680C4A9342F3D30B480C499E
:100230004FF000028842B8BF40F8042BFADB00F010
:1002400015F800F079FB00BF0837BD4680BD00BF40
:100250003C160008000000200000002000000020E4
:100260002000002080B400AFFEE700BF80B500AFE3
:10027000174A174B1B6843F0010313601449144BD2
:100280005A68144B13404B60114A114B1B6823F002
:10029000847323F4803313600D4A0D4B1B6823F4E1
:1002A000802313600A4A0A4B5B6823F4FE03536001
:1002B000074B4FF41F029A60054B0022DA6200F0F0
:1002C0000DF8054B4FF000629A6000BF80BD00BF83
:1002D000001002400000FFF800ED00E080B500AF24
:1002E00000F002F800BF80BD80B483B000AF0023EF
:1002F0007B6000233B60304A2F4B1B6843F4803304
:1003000013602D4B1B6803F400333B607B680133A3
:100310007B603B68002B03D17B68B3F5A06FF0D105
:10032000254B1B6803F40033002B02D001233B60F4
:1003300001E000233B603B68012B37D11E4A1E4B76
:100340005B6853601C4A1C4B5B6853601A4A1A4B2B
:100350005B685360184A184B5B6823F47C13536046
:10036000154A154B5B6843F498135360124A124BBD
:100370001B6843F08073136000BF0F4B1B6803F0D2
:100380000073002BF9D00C4A0B4B5B6823F003037E
:100390005360094A084B5B6843F00203536000BF97
:1003A000054B5B6803F00C03082BF9D100BF0C3739
:1003B000BD4680BC704700BF0010024080B483B0CF
:1003C00000AF0346FB71084997F907305B09FA79DA
:1003D00002F01F02012000FA02F241F8232000BFC0
:1003E0000C37BD4680BC704700E100E080B590B09E
:1003F00000AF0121042000F001FB07F13C03184687
:1004000000F064F9002387F83F301023BB870223F4
:1004100087F83E3007F13C031946394800F09AF856
:100420000121102000F008FB364B05221A85354BC0
:100430004FF416729A85012201213248FFF792FE8D
:1004400020213048FFF7B2FE01212E48FFF76AFE57
:1004500001214FF0005000F0EFFA07F12C0318468D
:1004600000F07AF90423FB6200233B630023BB63A3
:1004700007F12C031946002000F03CF9012100206F
:1004800000F080F90121012000F09AFA1E4800F0E6
:1004900047FE3B46184600F03DFF1C4B3B601C4BA3
:1004A0007B601023BB600123FB6000233B61802342
:1004B0007B614FF48073BB614FF48063FB61202349
:1004C0003B624FF400537B620023BB623B461946FC
:1004D0000D4800F0E1FE012202210B4800F060FF10
:1004E0000D20FFF76BFF0121074800F03DFF0121C0
:1004F000002000F06BF900BF4037BD4680BD00BF53
:100500000008014000100040300002400874004024
:100510000400002080B400AF0B4B1B68012B03D1FB
:100520000A4B4FF496729A85094A094B5B6843F46B
:1005300000735360044B1B680133034A136000BF10
:10054000BD4680BC704700BF000000200004004092
:100550000000024080B489B000AF786039600023A9
:10056000FB6100233B610023BB610023FB60002390
:100570007B610023BB603B68DB7803F00F03FB610A
:100580003B68DB7803F01003002B05D03B689B78B9
:100590001A46FB691343FB613B681B88DBB2002BE7
:1005A00044D07B681B687B610023BB6138E001227B
:1005B000BB6902FA03F3FB603B681B881A46FB68C1
:1005C00013403B613A69FB689A4226D1BB699B00A4
:1005D000FB600F22FB6802FA03F3BB60BB68DB43DE
:1005E0007A6913407B61FA69FB6802FA03F37A695E
:1005F00013437B613B68DB78282B05D10122BB6963
:100600009A407B685A6108E03B68DB78482B04D14C
:100610000122BB699A407B681A61BB690133BB61E7
:10062000BB69072BC3D97B687A691A603B681B8852
:10063000FF2B46D97B685B687B610023BB613AE096
:10064000BB690833012202FA03F3FB603B681B8895
:100650001A46FB6813403B613A69FB689A4227D10E
:10066000BB699B00FB600F22FB6802FA03F3BB60CF
:10067000BB68DB437A6913407B61FA69FB6802FA65
:1006800003F37A6913437B613B68DB78282B05D140
:10069000BB69083301229A407B685A613B68DB786A
:1006A000482B05D1BB69083301229A407B681A6147
:1006B000BB690133BB61BB69072BC1D97B687A6910
:1006C0005A6000BF2437BD4680BC704780B483B0F9
:1006D00000AF78607B684FF6FF721A807B68022259
:1006E0009A707B680422DA7000BF0C37BD4680BC6C
:1006F000704700BF80B485B000AF786039600023D8
:10070000FB600023BB60134B1B68FB6040F6FE726E
:100710007B6802FA03F3DB43FA681340FB603B6833
:100720001A683B685B681A433B689B681A433B68DE
:10073000DB681343BB60BA687B6802FA03F3FA68AC
:100740001343FB60034AFB68136000BF1437BD46C8
:1007500080BC70470074004080B483B000AF786004
:100760007B6800221A607B6800225A607B68002246
:100770009A607B680022DA6000BF0C37BD4680BCFF
:10078000704700BF80B483B000AF78600B46FB7049
:10079000FB78002B09D00C490B4B1A6801207B68B1
:1007A00000FA03F313430B6009E00749064B1A688C
:1007B00001207B6800FA03F3DB4313400B6000BFAA
:1007C0000C37BD4680BC70470074004080B483B0D5
:1007D00000AF78600B46FB70FB78002B0AD00D4908
:1007E0000C4B1A684FF480507B6800FA03F31343F4
:1007F0000B600AE00749074B1A684FF480507B688A
:1008000000FA03F3DB4313400B6000BF0C37BD4617
:1008100080BC70470074004080B485B000AF786041
:100820000B467B800023FB60074BFB60FA687B680C
:1008300013441433FB60FB681A467B88136000BFC7
:100840001437BD4680BC70470074004080B483B04C
:1008500000AF0346FB71084997F907305B09FA7945
:1008600002F01F02012000FA02F241F8232000BF2B
:100870000C37BD4680BC704700E100E080B500AF9A
:1008800001214FF08040FFF7ADFC1821254800F012
:1008900007FB03461A46244B1A60244B1B68012BA6
:1008A00032D1234B1A68204B1B689A420BDA002185
:1008B0001020FFF7B1FF1F4B00221A601A4B1B6874
:1008C0001B4A136020E0184B1A68194B1B689A42A8
:1008D0000CDA40F6FF711020FFF79EFF154B012246
:1008E0001A60114B1B68124A13600DE0114B1B6814
:1008F000012B05D140F6FF711020FFF78DFF03E0BB
:1009000000211020FFF788FF084B1B68002B06D141
:10091000054B1B68064A1360044B01221A6000BF96
:1009200080BD00BF0024014014000020080000200A
:100930000C0000201000002080B500AF0121012034
:1009400000F07AF8FFF792FC00F04EFB00F05EFD3D
:1009500000F090F8FFF74AFD4FF0804305221A851A
:100960004FF080434FF416729A85012201214FF017
:100970008040FFF7F7FB01214FF08040FFF7D2FBEB
:100980001C20FFF763FFFEE780B485B000AF7860FE
:100990000023FB60094B5B68FB60FB6823F440436A
:1009A000FB60FA687B681343FB60044AFB68536092
:1009B00000BF1437BD4680BC704700BF0010024026
:1009C00080B483B000AF78600B46FB70FB78002BDF
:1009D00006D00949084B5A697B6813434B6106E00E
:1009E0000549054B5A697B68DB4313404B6100BFE7
:1009F0000C37BD4680BC70470010024080B483B005
:100A000000AF78600B46FB70FB78002B06D00949DD
:100A1000084B9A697B6813438B6106E00549054BD7
:100A20009A697B68DB4313408B6100BF0C37BD467E
:100A300080BC70470010024080B483B000AF786083
:100A40000B46FB70FB78002B06D00949084BDA698E
:100A50007B681343CB6106E00549054BDA697B6887
:100A6000DB431340CB6100BF0C37BD4680BC7047F1
:100A70000010024080B586B000AF07F1140318469D
:100A8000FFF724FE0023FB752023BB820223BB75E6
:100A900007F1140319461B48FFF75CFD01212020D4
:100AA000FFF7CAFF184B05221A85174B4FF4167231
:100AB0009A85012201211448FFF754FB2021124896
:100AC000FFF774FB01211048FFF72CFB01214FF0C9
:100AD0000050FFF7B1FF3B1D1846FFF73DFE142302
:100AE0007B600023BB6000233B613B1D1946102047
:100AF000FFF700FE01211020FFF744FE00BF18376A
:100B0000BD4680BD000801400014004080B485B09F
:100B100000AF786039600023FB600023FB727B68C4
:100B20005B68FB60FB6823F4702323F48073FB6035
:100B30003B681A683B681B791B021343FA6813432E
:100B4000FB607B68FA685A607B689B68FB60FA68A8
:100B5000164B1340FB603B68DA683B689B681A439E
:100B60003B685B795B001343FA681343FB607B6867
:100B7000FA689A607B68DB6AFB60FB6823F47003A9
:100B8000FB603B681B7C013BDAB2FB7A1343FB72D0
:100B9000FB7A1B05FA681343FB607B68FA68DA622C
:100BA00000BF1437BD4680BC704700BFFDF7F1FFA2
:100BB00080B483B000AF78600B46FB70FB78002BED
:100BC00006D07B689B6843F001027B689A6005E071
:100BD0007B689B6823F001027B689A6000BF0C373A
:100BE000BD4680BC704700BF80B485B000AF786060
:100BF0000B467B8013467B700023FB737B88FB7363
:100C00007B78002B06D07B685A68FB7B1A437B6895
:100C10005A6006E07B685A68FB7BDB431A407B68BE
:100C20005A6000BF1437BD4680BC704780B483B0A3
:100C300000AF78607B689B6843F008027B689A602D
:100C400000BF0C37BD4680BC704700BF80B485B084
:100C500000AF78600023FB737B689B6803F0080398
:100C6000002B02D00123FB7301E00023FB73FB7B0D
:100C700018461437BD4680BC704700BF80B483B0AF
:100C800000AF78607B689B6843F004027B689A60E1
:100C900000BF0C37BD4680BC704700BF80B485B034
:100CA00000AF78600023FB737B689B6803F004034C
:100CB000002B02D00123FB7301E00023FB73FB7BBD
:100CC00018461437BD4680BC704700BF80B483B05F
:100CD00000AF78600B46FB70FB78002B06D07B687A
:100CE0005B6843F480627B685A6005E07B685B6800
:100CF00023F480627B685A6000BF0C37BD4680BC1D
:100D0000704700BF80B483B000AF78600B46FB70C3
:100D1000FB78002B06D07B689B6843F402127B684B
:100D20009A6005E07B689B6823F402127B689A60F6
:100D300000BF0C37BD4680BC704700BF80B487B091
:100D400000AF7860084611461A460346FB700B4612
:100D5000BB7013467B7000237B6100233B61002343
:100D6000FB60FB78092B23D97B68DB687B61FB7810
:100D7000A3F10A0213465B001344072202FA03F3AD
:100D80003B613B69DB437A6913407B617978FB788F
:100D9000A3F10A0213465B00134401FA03F33B611B
:100DA0007A693B6913437B617B687A69DA601EE08C
:100DB0007B681B697B61FA7813465B00134407224A
:100DC00002FA03F33B613B69DB437A6913407B61C1
:100DD0007978FA7813465B00134401FA03F33B6118
:100DE0007A693B6913437B617B687A691A617B6826
:100DF0009B6B7B617B691B0D03F00303FB60FB684E
:100E0000DBB2BA78D31ADBB20233DBB21A4613462E
:100E10009B0013441F2202FA03F33B613B69DB434F
:100E20007A6913407B61FA78FB68DBB2B978CB1A38
:100E3000DBB20233DBB219460B469B000B4402FACD
:100E400003F33B617A693B6913437B617B687A6991
:100E50009A6300BF1C37BD4680BC704780B485B024
:100E600000AF78600B46FB700023FB600023BB6083
:100E70007B689B6BFB60FB6823F44013FB60FB7893
:100E8000013BBB60BB681B05FA681343FB607B68D2
:100E9000FA689A6300BF1437BD4680BC704700BF34
:100EA00080B485B000AF78600B46FB700023FB6018
:100EB0007B68FB60FA78FB6813442833FB60FB68AF
:100EC0001B689BB218461437BD4680BC704700BFF4
:100ED00080B485B000AF786039600023FB607B6828
:100EE0005B68FB60FB6823F4400323F40073FB6042
:100EF000FA683B681343FB607B68FA685A6000BF7E
:100F00001437BD4680BC704780B483B000AF7860B2
:100F10000B467B8013463B807A887B685A623A880E
:100F20007B689A6200BF0C37BD4680BC704700BF2B
:100F300080B485B000AF78600B46FB700023FB6087
:100F40007B685B68FB60FB6823F01F03FB60FB783A
:100F5000FA681343FB607B68FA685A6000BF143775
:100F6000BD4680BC704700BF80B487B000AF7860DA
:100F70000B467B800023FB7500233B610023FB6055
:100F80007B881B0A9BB23B617B685B687A88D2B224
:100F90001340FB607B681A683B691340002B05D047
:100FA000FB68002B02D00123FB7501E00023FB75D9
:100FB000FB7D18461C37BD4680BC704780B485B0A9
:100FC00000AF78600B467B800023FB737B881B0A95
:100FD0009BB2FB73FB7BDA437B681A6000BF14375C
:100FE000BD4680BC704700BF80B588B000AF4FF4ED
:100FF0000040FFF7C9FC01210420FFF7FFFC01219D
:101000004FF40070FFF7FAFC0223BB830023FB7749
:101010000223BB7707F11C0319463248FFF79AFAFF
:1010200012233B7100237B710023BB710123FB71F1
:101030003B1D184600F0A0FA01237B7300237B615F
:101040004FF4E0433B610023BB6001233B76012367
:101050003B7307F1080319462348FFF757FD0121A9
:101060002148FFF7FBFE0523022201211E48FFF75E
:1010700065FE40F2A14240F222611B48FFF744FFA7
:1010800001211948FFF754FF18491748FFF720FFBF
:1010900001224FF4A0711448FFF7A6FD0121124868
:1010A000FFF786FD1048FFF7C1FD00BF0E48FFF7B0
:1010B000CDFD0346002BF9D10B48FFF7DFFD00BF44
:1010C0000948FFF7EBFD0346002BF9D10121064843
:1010D000FFF7FCFD01210448FFF714FE00BF203795
:1010E000BD4680BD00080140002401400002800090
:1010F00080B500AF4FF4A0710748FFF735FF0346F6
:10110000002B07D0054B01221A704FF4A071024842
:10111000FFF754FF00BF80BD0024014018000020ED
:1011200080B483B000AF78607B681A684FF6FE73B6
:1011300013407A6813607B6800221A607B68002283
:101140005A607B6800229A607B680022DA607B68C4
:10115000434A934206D1434A424B5B6843F00F0334
:10116000536077E07B68404A934206D13D4A3D4B4D
:101170005B6843F0F00353606CE07B683B4A93424A
:1011800006D1384A374B5B6843F47063536061E0C3
:101190007B68374A934206D1324A324B5B6843F44C
:1011A0007043536056E07B68324A934206D12D4A21
:1011B0002C4B5B6843F4702353604BE07B682E4AF2
:1011C000934206D1274A274B5B6843F47003536070
:1011D00040E07B68294A934206D1224A214B5B6852
:1011E00043F07063536035E07B68254A934206D133
:1011F000244A244B5B6843F00F0353602AE07B686A
:10120000214A934206D11F4A1E4B5B6843F0F0030C
:1012100053601FE07B681D4A934206D1194A194B5F
:101220005B6843F47063536014E07B68184A934230
:1012300006D1144A134B5B6843F47043536009E0D2
:101240007B68144A934205D10E4A0E4B5B6843F407
:101250007023536000BF0C37BD4680BC704700BF91
:1012600008000240000002401C0002403000024022
:1012700044000240580002406C00024080000240DE
:1012800008040240000402401C04024030040240F2
:10129000440402405804024080B485B000AF786036
:1012A00039600023FB607B681B68FB60FB6823F4EC
:1012B000FF4323F07003FB603B689A683B681B6A3E
:1012C0001A433B681B691A433B685B691A433B68D6
:1012D0009B691A433B68DB691A433B685B6A1A43A4
:1012E0003B689B6A1343FA681343FB607B68FA68A8
:1012F0001A603B68DA687B685A603B681A687B68EA
:101300009A603B685A687B68DA6000BF1437BD4654
:1013100080BC704780B483B000AF78607B680022E7
:101320001A607B6800225A607B6800229A607B68A2
:101330000022DA607B6800221A617B6800225A6111
:101340007B6800229A617B680022DA617B68002258
:101350001A627B6800225A627B6800229A6200BF90
:101360000C37BD4680BC704780B483B000AF786056
:101370000B46FB70FB78002B06D07B681B6843F0A4
:1013800001027B681A6006E07B681A684FF6FE73FC
:1013900013407A68136000BF0C37BD4680BC7047AD
:1013A00080B485B000AFF860B9601346FB71FB797B
:1013B000002B06D0FB681A68BB681A43FB681A60EA
:1013C00006E0FB681A68BB68DB431A40FB681A60DA
:1013D00000BF1437BD4680BC704700BF80B483B0E7
:1013E00000AF0346FB71084997F907305B09FA79AA
:1013F00002F01F02012000FA02F241F8232000BF90
:101400000C37BD4680BC704700E100E080B588B075
:1014100000AF4FF40040FFF7B7FA01210420FFF7B7
:10142000EDFA01214FF48060FFF7E8FA0121042072
:10143000FFF702FB0423BB830023FB770223BB7768
:1014400007F11C0319463348FFF784F801237B7327
:1014500000237B610023BB6001233B7601233B73A8
:101460004FF4A0433B6107F1080319462A48FFF7F0
:101470004DFB01212848FFF7F1FC05230122022141
:101480002548FFF75BFC12233B7100237B7100238F
:10149000BB710123FB713B1D184600F06DF8012163
:1014A0001D48FFF785FB1C48FFF7C0FB00BF1A482B
:1014B000FFF7CCFB0346002BF9D11748FFF7DEFB03
:1014C00000BF1548FFF7EAFB0346002BF9D10121C5
:1014D0001148FFF7FBFB01210F48FFF713FC0F4BEF
:1014E00005221A850D4B4FF416729A8501220121AF
:1014F0000A48FEF737FE20210848FEF757FE012173
:101500000648FEF70FFE1E20FFF768FF00BF2037DA
:10151000BD4680BD00080140002401400008004095
:1015200080B582B000AF01210F48FEF75BFE1421A9
:101530000E48FFF7B5FC03467B607B68012B07D1A3
:101540000B4B1B680B4A4FF47A6122F8131006E02C
:10155000074B1B68074A4FF4FA6122F8131000BFCB
:101560000837BD4680BD00BF000800400024014090
:101570001C0000200400002080B487B000AF786019
:1015800000237B6100233B610F23FB607B68DB78DA
:10159000002B3AD0274BDB68DB4303F4E0631B0AE4
:1015A0007B617B69C3F104033B61FA687B6922FAC2
:1015B00003F3FB607B685B781A463B6902FA03F32E
:1015C0007B617B689B781A46FB6813407A691343FA
:1015D0007B617B691B017B61174A7B681B7879699A
:1015E000C9B213440A4683F80023134A7B681B7868
:1015F0005B09DBB218467B681B7803F01F030121EF
:1016000001FA03F342F820300FE00B497B681B78A6
:101610005B09DBB218467B681B7803F01F030122CD
:101620009A4000F1200341F8232000BF1C37BD463B
:0C16300080BC704700ED00E000E100E02D
:0400000508000000EF
:00000001FF
